:0B06D2003F065B4F666D7D077F6F40A9
:1006B000010D32010F3B01111701101C0112020143
:0606C0000E1502170000F8
:040675007F147E0070
:10067900E4FDFCC3ED9FEC9E5015E4FBFA0BBB00B7
:0F068900010AEB64744A70F50DBD00010C80E4AA
:01069800223F
:100699005389F0438901758A18758CFCC28DD28CF7
:0706A900D2A9D2AFC2B922B1
:03050500FD7C007A
:100508008C1C8D1DEF24F7B40800505490052275FB
:10051800F003A4C58325F0C5837302053A02053E9E
:1005280002054202054602054A02055202055A0220
:100538000562C2A7800EC2A78012C2A78016C2A7F2
:10054800801AD2A7C2A6C2A58016D2A7C2A6D2A5D3
:10055800800ED2A7D2A6C2A58006D2A7D2A6D2A5BF
:1005680074D2251DF5827406351CF583E493F58055
:0B0578007F017E00120679E4F580226E
:0305FE00FD7C0081
:10060100EF14B40800505490061675F003A4C58386
:1006110025F0C5837302062E020632020636020653
:100621003A02063E02064602064E020656C2A38062
:100631000EC2A38012C2A38016C2A3801AD2A3C283
:10064100A2C2A18016D2A3C2A2D2A1800ED2A3D2ED
:10065100A2C2A18006D2A3D2A2D2A174D22DF582C8
:1006610074063CF583E493F5907F017E00120679D0
:04067100E4F59022FA
:1003E900E5147F10120505E5137F0F1205057D0A37
:1003F9007C007F0E120508E516FD7C007F0D1205B5
:1004090008E515FD7C007F0C1205087D0A7C007F3C
:100419000B120508E51AFD7C007F0A120508E5198B
:10042900FD7C007F09120508E5097F081205FEE534
:100439000B7F071205FE7D0A7C007F06120601E587
:100449000AFD7C007F05120601E50CFD7C007F0496
:100459001206017D0A7C007F03120601E51BFD7C63
:10046900007F02120601E508FD7C007F01020601FA
:10000E00AFB0EF1205D802371F02052F01D537000A
:10001E00803B00583D003C3E024F5F021D6F01EBDE
:10002E007701297B006E7D004A7E0000026920A4C4
:10003E000B12067520A405050E30A4FD20A40B128C
:10004E00067520A405150E30A4FD20A41312067506
:10005E0020A40D0512E512B40D0375120130A4FD96
:10006E0020A40F12067520A409D5120375120C30A8
:10007E00A4FD30A40302012912067530A403020167
:10008E00290510E51264016023E5126403601DE585
:10009E001264056017E51264076011E512640860CA
:1000AE000BE512640A6005E512B40C08E510642035
:1000BE0070668061E51264046011E5126406600BDF
:1000CE00E51264096005E512B40B08E510641F70B3
:1000DE00478042E5126402703FE50E24D0FBE43403
:1000EE0007FA7C017D90AF03FE120583ED4C60197B
:1000FE007C007D64AF03AE02120583ED4C6011E50A
:10010E000E24D0FFEF54037007E510B41E0A8005CD
:10011E00E510B41D0375100130A4FD30A4030201D7
:10012E00D512067530A4030201D51510E51264012F
:10013E006023E5126403601DE51264056017E51285
:10014E0064076011E5126408600BE512640A60052D
:10015E00E512B40C09E510706B75101F8066E51280
:10016E0064046011E5126406600BE5126409600513
:10017E00E512B40B09E510704B75101E8046E512A2
:10018E0064027040E50E24D0FBE43407FA7C017D56
:10019E0090AF03FE120583ED4C60197C007D64AFB9
:1001AE0003AE02120583ED4C6013E50E24D0FFEF73
:1001BE0054037009E510700C75101D8007E5107062
:1001CE000375101C30A4FD20A41312067520A40D77
:1001DE000511E511B41803E4F51130A4FD20A417A0
:1001EE0012067520A411E511D39400400415118058
:1001FE000375111730A4FD20A41512067520A40F47
:10020E00050FE50FC3943C4003E4F50F30A4FD2029
:10021E00A41712067520A411E50FD39400400415FF
:10022E000F8003750F3B30A4FD20A4151206752018
:10023E00A40F050DE50DC3943C4003E4F50D30A469
:10024E00FD20A41712067520A411E50DD3940040CD
:0C025E0004150D8003750D3B30A4FD223B
:0B06C7001206991203E912000E80F8E1
:03000B0002026A84
:10026A00C0E0C0F0C0D075D000C000C002C003C05A
:10027A0004C005C006C007758A18758CFC0518E508
:10028A00187002051764E87004E517640360030236
:10029A00036EF517F518050DE50D643C60030203BE
:1002AA006EF50D050FE50F643C600302036EF50F52
:1002BA000511E5116418600302036EF511F50FF5D7
:1002CA000D0510E51264016023E5126403601DE563
:1002DA001264056017E51264076011E5126408608C
:1002EA000BE512640A6005E512B40C08E5106420F7
:1002FA0070688061E51264046011E5126406600B9F
:10030A00E51264096005E512B40B08E510641F7074
:10031A00498042E51264027041E50E24D0FBE434C0
:10032A0007FA7C017D90AF03FE120583ED4C60193C
:10033A007C007D64AF03AE02120583ED4C6011E5CB
:10034A000E24D0FFEF54037007E510B41E0C80058D
:10035A00E510B41D057510010512E512B40D0575F9
:10036A001201050EE50D75F00A8485F014E50D7588
:10037A00F00A84F513E50F75F00A8485F016E50F87
:10038A0075F00A84F515E51175F00A8485F01AE509
:10039A001175F00A84F519E51075F00A8485F009DB
:1003AA00E51075F00A84F50BE51275F00A8485F0FC
:1003BA000AE51275F00A84F50CE50E75F00A8485D3
:1003CA00F01BE50E75F00A84F508D007D006D005B3
:0F03DA00D004D003D002D000D0D0D0F0D0E03289
:030000000204797E
:0C047900787FE4F6D8FD75811D0204C0F8
:10058300BC000BBE0029EF8DF084FFADF022E4CC5C
:10059300F875F008EF2FFFEE33FEEC33FCEE9DEC25
:1005A300984005FCEE9DFE0FD5F0E9E4CEFD22ED6B
:1005B300F8F5F0EE8420D21CFEADF075F008EF2FB5
:1005C300FFED33FD4007985006D5F0F222C398FDA6
:0505D3000FD5F0EA2243
:1005D800D083D082F8E4937012740193700DA3A3B2
:1005E80093F8740193F5828883E4737402936860C6
:0605F800EFA3A3A380DFC6
:100485000206C7E493A3F8E493A34003F68001F2C0
:1004950008DFF48029E493A3F85407240CC8C33378
:1004A500C4540F4420C8834004F456800146F6DF47
:1004B500E4800B01020408102040809006B0E47E21
:1004C500019360BCA3FF543F30E509541FFEE4933C
:1004D500A360010ECF54C025E060A840B8E493A303
:1004E500FAE493A3F8E493A3C8C582C8CAC583CA2E
:1004F500F0A3C8C582C8CAC583CADFE9DEE780BEE6
:0106C6000033
:00000001FF
